:020000040800F2
:1000000000200020451900083109000833090008C4
:1000100000000000000000000000000000000000E0
:10002000000000000000000000000000350900088A
:10003000000000000000000037090008390900082E
:1000400095190008951900089519000895190008D8
:1000500095190008A90500089519000895190008C8
:10006000951900089519000895190008410900081C
:1000700095190008951900089519000895190008A8
:10008000951900089519000800000000951900084E
:100090009519000895190008951900089519000888
:1000A0009519000895190008951900089519000878
:1000B00095190008000000009519000800000000D4
:1000C00010B5064C2378002B07D1054B002B02D02E
:1000D000044800E000BF0123237010BD1406002077
:1000E00000000000F0190008044B10B5002B03D0ED
:1000F0000349044800E000BF10BDC04600000000F6
:1001000018060020F0190008002243088B4274D31F
:1001100003098B425FD3030A8B4244D3030B8B4208
:1001200028D3030C8B420DD3FF22090212BA030C11
:100130008B4202D31212090265D0030B8B4219D3F2
:1001400000E0090AC30B8B4201D3CB03C01A524112
:10015000830B8B4201D38B03C01A5241430B8B425A
:1001600001D34B03C01A5241030B8B4201D30B0343
:10017000C01A5241C30A8B4201D3CB02C01A52416A
:10018000830A8B4201D38B02C01A5241430A8B422D
:1001900001D34B02C01A5241030A8B4201D30B0216
:1001A000C01A5241CDD2C3098B4201D3CB01C01A30
:1001B000524183098B4201D38B01C01A524143093A
:1001C0008B4201D34B01C01A524103098B4201D328
:1001D0000B01C01A5241C3088B4201D3CB00C01A95
:1001E000524183088B4201D38B00C01A524143080D
:1001F0008B4201D34B00C01A5241411A00D2014632
:10020000524110467047FFE701B5002000F006F8A4
:1002100002BDC0460029F7D076E770477047C04658
:1002200010B586B004AC08220021200001F0B3FB19
:100230001E4B5A698021C9030A435A615A690A4010
:100240000392039A5A69802189020A435A615A69C2
:100250000A400292029A5A698021C9020A435A61ED
:100260005B690B400193019B114A93680F218B43FB
:1002700093609021C905CB68032083430122134377
:10028000CB600B6883430B6004922271002363717F
:10029000A271200000F0A8FB00220021052000F040
:1002A00053FC052000F054FC06B010BD00100240C5
:1002B0000000014000B583B0094A51690123194388
:1002C0005161526913400193019B002200210B20D0
:1002D00000F03AFC0B2000F03BFC03B000BDC04630
:1002E0000010024082B0430018180023019304E07C
:1002F000C046C046019B01330193019B8342F7D363
:1003000002B0704770B51420FFF7ECFF0A4CA369E8
:1003100080252D022B43A3611420FFF7E3FFA26980
:1003200080231B061343A3611420FFF7DBFFA3699F
:100330001D43A56170BDC0460008004810B504000B
:10034000454A91698023DB010B43936143B2002B43
:1003500046DB9022D205916980231B060B439361F3
:10036000630645D59022D205916980235B010B433A
:100370009361A30644D5394A916980239B000B43BE
:100380009361E30643D5354A916980235B000B43B3
:100390009361FFF7B7FF230740D59022D2059169FB
:1003A00080231B020B43936163073FD59022D20544
:1003B000916980235B010B439361A3073ED5274AD4
:1003C000916980239B000B439361E4073DD5234A49
:1003D000916980235B000B439361FFF793FF10BD8E
:1003E0009022D205916980231B020B439361B7E7EA
:1003F0009022D205916980235B050B439361B8E796
:10040000164A916980239B040B439361B9E7134A11
:10041000916980235B040B439361BAE79022D20574
:10042000916980231B060B439361BDE79022D2059F
:10043000916980235B050B439361BEE7074A91698D
:1004400080239B040B439361BFE7044A9169802397
:100450005B040B439361C0E70008004800040048B8
:1004600070B50500002403E0FFF768FF0134E4B233
:10047000285D0028F8D170BD10B50400474A916985
:100480008023DB050B43936143B2002B49DB9022B1
:10049000D205916980231B060B439361630648D5FF
:1004A0009022D205916980235B010B439361A306DF
:1004B00047D53B4A916980239B000B439361E30638
:1004C00046D5374A916980235B000B439361FFF760
:1004D00019FF230743D59022D205916980231B027F
:1004E0000B439361630742D59022D2059169802323
:1004F0005B010B439361A30741D5294A916980238E
:100500009B000B439361E40740D5254A9169802302
:100510005B000B439361FFF7F5FE2248FFF7E2FE15
:1005200010BD9022D205916980231B020B43936179
:10053000B4E79022D205916980235B050B43936158
:10054000B5E7174A916980239B040B439361B6E793
:10055000134A916980235B040B439361B7E79022B0
:10056000D205916980231B060B439361BAE7902261
:10057000D205916980235B050B439361BBE7084A71
:10058000916980239B040B439361BCE7044A916902
:1005900080235B040B439361BDE7C046000800481D
:1005A00000040048B80B000010B500F017FA040072
:1005B000234B1B68C31AC82B05D8214B1C60012094
:1005C00000F0A2FC10BD1F4800F05DFB1E4B1B6835
:1005D000002B12D0012B21D01C4B1A681C49194842
:1005E000802300F015FB0120FFF746FF1948FFF7B5
:1005F00037FF154B00221A60DFE7144B1A681649C3
:100600001048802300F004FB0120FFF735FF13485A
:10061000FFF726FF0C4B01221A60CEE70B4B1A683E
:100620000F490848802300F0F3FA0120FFF724FF68
:100630000C48FFF715FF044B02221A60BDE7C046C5
:10064000340600203806002030060020000000207C
:1006500008040020181A000808020020081A0008E0
:10066000080000200C1A000810B51B4B59698022A5
:1006700092020A435A6159698022D2020A435A619E
:100680005969802212030A435A619022D2051168E7
:100690008223DB050B431360104A1168A023DB02A1
:1006A0000B4313600E4A1168A023DB050B43136054
:1006B0000C48FFF717FE3320FFF7DEFE3220FFF76E
:1006C000DBFE0C20FFF7D8FE2820FFF7D5FE012027
:1006D000FFF7D2FE10BDC0460010024000040048E3
:1006E000000800483075000072B6FEE700B58FB014
:1006F000102200210AA801F04EF90822002108A8C2
:1007000001F049F91C22002101A801F044F9204818
:100710008023DB0503600023436083601D4A126869
:10072000013AC26003618033836100F043FD002819
:1007300024D180235B010A9315480AA900F0B2FE78
:1007400000281DD1124800F061FD00281AD10023B5
:10075000089309930E4808A901F032F8002813D134
:10076000002301930293039305930948002201A9F2
:1007700000F0E6FD002809D10FB000BDFFF7B4FF7F
:10078000FFF7B2FFFFF7B0FFFFF7AEFFFFF7ACFFD9
:10079000C40600200400002000B58FB01022002104
:1007A0000AA801F0F8F80822002108A801F0F3F8DF
:1007B0001C22002101A801F0EEF82148214B036022
:1007C000002343608360204AC260036180338361F9
:1007D00000F0F0FC002828D180235B010A93184820
:1007E0000AA900F05FFE002821D1154800F03AFD6B
:1007F00000281ED1002308930993114808A900F08E
:10080000DFFF002817D16023019300230293039395
:1008100005930B48082201A900F0C0FD00280CD167
:10082000074801F061F80FB000BDFFF75DFFFFF76B
:100830005BFFFFF759FFFFF757FFFFF755FFC04674
:100840007C06002000040040FF03000010B51A4A97
:10085000136801218B431360174B1B68DB07FBD424
:10086000164A136801210B431360144B1B689B0746
:10087000FBD5124B1A68F8218A4378390A431A606B
:100880005A6870318A435A605A680D490A405A6062
:100890005A6803218A435A60084B5B680C221A424B
:1008A000FAD1084801F048F8032000F053F8002876
:1008B00000D110BDFFF718FF0020024000100240D9
:1008C000FFF8FFFF00127A0070B500F06BF8FFF739
:1008D000BDFFFFF7A5FCFFF7EDFCFFF707FFFFF7F4
:1008E0005BFF0D4C0821200000F0ECFE0B480021BE
:1008F00000F06AFE0A4D2A680A490B48802300F07E
:1009000087F9FFF7B1FE0948FFF7AAFD2268D3680F
:1009100029680B43D360FEE77C060020C406002054
:10092000000000200804002038060020181A0008E3
:10093000FEE7FEE77047704710B500F043F810BDC2
:1009400010B5024800F0C4F910BDC04638060020BA
:100950007047000010B504000F4B1978FA20800092
:10096000FFF7D2FB01000D4B1868FFF7CDFB00F03D
:10097000FBF800280DD1032C01D901200AE0013039
:1009800000222100404200F0DFF8054B1C600020EF
:1009900000E0012010BDC0460C0600200806002023
:1009A0001006002010B5064A136810210B4313608F
:1009B0000320FFF7CFFF00F039FF002010BDC04635
:1009C00000200240034A1168034B1B785B18136038
:1009D0007047C0460C0700200C060020014B186829
:1009E0007047C0460C07002010B5030000790028AE
:1009F00050D01A68002A57D05879012818D00228F8
:100A000020D000280BD001209A79002A4BD0022A4E
:100A10002CD0032A34D0012A1ED0012043E02349E0
:100A20004C6894434C601A680C6822430A60EBE7F8
:100A30001E490868904308601A68486802434A6083
:100A40000020E1E71949086802430A601A6848680B
:100A500002434A600020D7E71C68144AD168A143CA
:100A6000D1601B6891680B4393601CE01C680F4ABF
:100A70009168A14391601B68D1680B43D36012E079
:100A800019680A4A9468214391601B68D1680B4336
:100A9000D36008E01C68054A1168A1431160196819
:100AA00053688B43536010BD0020FCE700040140F5
:100AB00070B5002811DB8308134DC0339B005C59CF
:100AC00003221040C000FC3216008640B443890166
:100AD0000A40824022435A5170BD0F230340083B15
:100AE0009B0806339B00094A944663445C680322D2
:100AF0001040C000FC3215008540AC4389010A401B
:100B0000824022435A60E7E700E100E000ED00E0A8
:100B1000013880235B0498420FD2094A506009488B
:100B2000036A1B021B0AC02109060B430362002350
:100B3000936007331360002070470120FCE7C04634
:100B400010E000E000ED00E010B5FFF7B1FF10BDD0
:100B5000002805DB1F22024001239340014A136055
:100B60007047C04600E100E010B5FFF7D1FF10BDAF
:100B700070B5066CC56B0124B4406C60046863609A
:100B80004368102B04D0036899600368DA6070BD75
:100B900003689A600368D960F9E7000010B50400A3
:100BA0000068054B9C4660441421FFF7ADFA8000B5
:100BB0002064024BE36310BDF8FFFDBF000002405C
:100BC00070B5041E20D021250223435501680A6810
:100BD0000E4B1A40436880680343E0680343206972
:100BE000034360690343A0690343E069034313437C
:100BF0000B602000FFF7D2FF0023A36301226255A0
:100C00001F32A354002070BD0120FCE70FC0FFFF7E
:100C100070B504002020205C012832D0202001255E
:100C200025540130205C012804D020230022E25406
:100C3000022070BD2030013525540020A0632568B6
:100C400028680126B04328602000FFF791FFE36A7F
:100C5000002B0BD0226813680E210B43136022680F
:100C6000136801210B4313600020E2E72268136838
:100C70000A210B4313602268136806398B43136003
:100C8000EDE70220D5E710B52123C35C022B03D08A
:100C900004238363012010BD026813680E218B4377
:100CA000136001680A6801239A430A60016CC26BF1
:100CB0001C008C405460212283541F330022C254F4
:100CC000436B002B02D098470020E4E70020E2E7C6
:100CD00070B5C36B1A6804682568016C04238B40E7
:100CE0001A4212D06B0710D523689B0603D42368E1
:100CF000042293432360016CC26B04238B40536036
:100D0000C36A002B00D0984770BD02238B401A4263
:100D100018D0AB0716D523689B0606D423680A2291
:100D2000934323602123093AC254016CC26B02230E
:100D30008B40536020230022C254836A002BE3D0EF
:100D40009847E1E708238B401A42DDD02D07DBD519
:100D500023680E2293432360016CC26B01231C00A5
:100D60008C4054608363212283541F330022C25479
:100D7000036B002BC8D09847C6E70000F0B583B0DE
:100D8000002356E086685F000324BC40A643CC687D
:100D9000BC4034438460446894434E683609012261
:100DA00032409A402243426053E0DE080836B600E3
:100DB000375805321A4092000F249440A7430C691B
:100DC000944022003A43325056E0032600E00026C9
:100DD000A64034003C4302329200444E9451444AAF
:100DE0009768EA433E00AE434C68E40201D53E00FA
:100DF0002E433F4CA660E7683E0016404C68A402B4
:100E000001D53E002E433A4CE66067683E0016402E
:100E10004C68A40301D53E002E43354C666026681D
:100E200032404C68E40301D52A003243304C226042
:100E300001330C682200DA4056D001229A40250086
:100E400015401442F4D04E6803243440013C012C78
:100E500098D94C6803222240032A08D0C4685E0057
:100E60000322B24094438A68B2402243C2604C6875
:100E700003222240022A98D004685E000322170051
:100E8000B740BC434F683A40B240224302604C68CE
:100E9000C02292021442CBD0164CA66901221643FE
:100EA000A661A46922400192019A9A08941CA400A8
:100EB0000E4EA75903241C40A4000F26A640B7439A
:100EC0009026F605B04282D00B4EB04208D00B4EB1
:100ED000B04207D00A4EB04200D176E7052677E748
:100EE000012675E7022673E703B0F0BD000001405C
:100EF00000040140001002400004004800080048BF
:100F0000000C00487047000010B5054B5B691842A3
:100F100000D110BD024B5861FFF7F4FFF9E7C0465E
:100F20000004014030B5036A012293430362056A5D
:100F3000426883697324A3430C681C4302239D43C6
:100F40008B682B43154DA84208D0154DA84205D0FB
:100F5000144DA84202D0144DA84206D10825AB4337
:100F60001D00CB682B430425AB430C4DA84208D091
:100F70000B4DA84205D00B4DA84202D00A4DA84205
:100F800005D10A4D2A404D6915438A692A434260BA
:100F900084614A684263036230BDC046002C014050
:100FA000004001400044014000480140FFFCFFFFB9
:100FB00030B5036A184A13400362046A4268C36981
:100FC0007325AB430D681D43144B1C408B681B02FB
:100FD0002343134CA04209D0124CA0420DD0124C16
:100FE000A0420AD0114CA0420FD106E0104C1C4088
:100FF000CB681B0223430F4C23400F4C22404C690B
:10100000240114438A69120122434260C5614A687F
:10101000C263036230BDC046FFFEFFFFFFFDFFFF5E
:10102000002C0140004001400044014000480140C4
:10103000FFF7FFFFFFFBFFFFFFCFFFFF30B5036AA6
:10104000134A13400362046A4368C269114D2A407F
:101050000D682D021543104A14408A68120322437A
:101060000E4CA04208D00E4CA04205D00D4CA04220
:1010700002D00D4CA04204D10C4C1C404B699B018A
:1010800023434360C5614B680364026230BDC046C0
:10109000FFEFFFFFFF8CFFFFFFDFFFFF002C014092
:1010A000004001400044014000480140FFBFFFFFF5
:1010B00030B5036A046A0125AC4304628469EF35E4
:1010C000AC43120122430A24A3430B43826103620F
:1010D00030BD000030B5036A1024A3430362846965
:1010E000036A054D2C4012032243A024A3430901A7
:1010F00019438261016230BDFF0FFFFF83687022D8
:1011000093430B43693A13438360704770477047BA
:101110000368214A904206D08022D205904202D034
:101120001E4A904203D1702293434A6813431A4ADD
:10113000904212D08022D20590420ED0174A90429F
:101140000BD0174A904208D0164A904205D0164A52
:10115000904202D0154A904203D1154A1A40CB68FA
:101160001343802293434A69134303608B68C3622D
:101170000B688362084B984208D00A4B984205D00E
:10118000094B984202D0094B984201D10B69036385
:10119000012343617047C046002C01400004004019
:1011A0000020004000400140004401400048014050
:1011B000FFFCFFFF70B5041E26D03D23C35C002B4F
:1011C0001CD03D2502236355210001C9FFF7A0FF74
:1011D00001234622A354083AA3540132A3540132F6
:1011E000A3540132A3540132A3540132A354013257
:1011F000A3540132A3546355002070BD3C33002238
:10120000C25400F02BFBDCE70120F6E770B5041EAA
:1012100026D03D23C35C002B1CD03D250223635503
:10122000210001C9FFF774FF01234622A354083AA5
:10123000A3540132A3540132A3540132A354013206
:10124000A3540132A3540132A3540132A354635571
:10125000002070BD3C330022C254FFF757FFDCE78B
:101260000120F6E770B5041E26D03D23C35C002B99
:101270001CD03D2502236355210001C9FFF748FF1B
:1012800001234622A354083AA3540132A354013245
:10129000A3540132A3540132A3540132A3540132A6
:1012A000A3540132A3546355002070BD3C33002287
:1012B000C254FFF72CFFDCE70120F6E770B5036AA4
:1012C000102293430362026A44688369164D2B40DF
:1012D0000D682D021D4320239A438B681B01134385
:1012E000124A904209D0124A90420ED0114A9042BE
:1012F0000BD0114A904210D107E0802293431E0088
:10130000CB681B013343403A93430C4A14404A696B
:10131000920022438C69A4001443446085614A68AA
:101320008263036270BDC046FF8CFFFF002C01404A
:10133000004001400044014000480140FFF3FFFF2E
:1013400010B504003C23C35C012B24D03C230120B6
:10135000E054082A1AD008D8002A12D0042A0CD146
:101360002068FFF7ABFF002007E00C2A04D12068BB
:10137000FFF764FE002000E001203C230022E2543D
:1013800010BD2068FFF7CEFD0020F6E72068FFF7CC
:101390000FFE0020F1E70220F2E7000070B5040024
:1013A0000D003C23C35C012B00D16AE03C230121EA
:1013B000C154082A50D01CD8002A38D0042A16D18B
:1013C00000682900FFF77AFF2268916980231B01DA
:1013D0000B439361226893692B490B409361216809
:1013E0008B692A69120213438B6100201BE00800FD
:1013F00019E00C2A16D100682900FFF71FFE2268A9
:10140000D16980231B010B43D3612268D3691E4934
:101410000B40D3612168CB692A6912021343CB6167
:10142000002000E001203C230022E25470BD00684F
:101430002900FFF777FD2268936908210B43936128
:101440002268936904398B439361226893692969FF
:101450000B4393610020E6E700682900FFF7A8FD31
:101460002268D36908210B43D3612268D369043908
:101470008B43D3612268D36929690B43D361002070
:10148000D1E70220D2E7C046FFFBFFFF30B58468FA
:10149000034D2C401B0213430B432343836030BD99
:1014A000FF00FFFF10B5040008003C23E35C012BA4
:1014B00000D177E03C230122E25401330132E254AF
:1014C0002268936838490B409360016860294FD0C7
:1014D00029D8402957D00CD9502922D14168C26857
:1014E0002068FFF7E5FD20685021FFF707FE002088
:1014F00005E020290ED009D930290BD001203D2349
:101500000122E254013B0022E25410BD002901D027
:10151000102904D12068FFF7F1FD0020EFE701203A
:10152000EDE70120EBE780225201914236D0802284
:10153000920191420DD181684268C3682068FFF72B
:10154000A5FF226891688023DB010B439360002094
:10155000D5E7702924D181684268C3682068FFF705
:1015600095FF2268936877210B4393600020C6E7BC
:101570004168C2682068FFF7ADFD20686021FFF771
:10158000BDFD0020BBE74168C2682068FFF790FD01
:1015900020684021FFF7B2FD0020B0E70020AEE751
:1015A0000120ACE70220B0E78800FFFF10B51F2341
:1015B000194001248C40036AA3430362036A8A40F2
:1015C0001343036210BD000010B50400002936D19A
:1015D0003E23C35C013B5A1E9341DBB2002B62D118
:1015E000002945D13E330222E25420680122FFF750
:1015F000DDFF23682E4A934208D02E4A934205D03D
:101600002D4A934202D02D4A934204D1596C802234
:1016100012020A435A642368254A934238D0802232
:10162000D205934234D0264A934231D0214A934284
:101630002ED01A6801210A431A60002034E00429E0
:1016400008D008290DD04123C35C013B5A1E9341A9
:10165000DBB2C3E73F23C35C013B5A1E9341DBB2BD
:10166000BCE74023C35C013B5A1E9341DBB2B5E7A4
:10167000042905D0082907D041230222E254B4E707
:101680003F230222E254B0E740230222E254ACE7B7
:10169000996807220A40062A07D01A6801210A43DE
:1016A0001A60002000E0012010BD0020FCE7C046C9
:1016B000002C01400040014000440140004801402E
:1016C0000004004010B50400002936D13E23C35C5D
:1016D000013B5A1E9341DBB2002B62D1002945D158
:1016E0003E330222E25420680122FFF75FFF2368A5
:1016F0002E4A934208D02E4A934205D02D4A934257
:1017000002D02D4A934204D1596C802212020A431E
:101710005A642368254A934238D08022D2059342E6
:1017200034D0264A934231D0214A93422ED01A68AF
:1017300001210A431A60002034E0042908D0082956
:101740000DD04123C35C013B5A1E9341DBB2C3E77A
:101750003F23C35C013B5A1E9341DBB2BCE74023ED
:10176000C35C013B5A1E9341DBB2B5E7042905D0A7
:10177000082907D041230222E254B4E73F23022282
:10178000E254B0E740230222E254ACE79968072212
:101790000A40062A07D01A6801210A431A6000206D
:1017A00000E0012010BD0020FCE7C046002C0140F5
:1017B0000040014000440140004801400004004056
:1017C00030B53C23C35C012B28D03C230122C254FA
:1017D00001330132C25403685C689D686E329443E1
:1017E0000A6822435A6003680D4A934209D0802256
:1017F000D205934205D00B4A934202D00A4A934243
:1018000004D1802295434A682A439A603D230122ED
:10181000C254013B0022C254002030BD0220FCE72C
:10182000002C0140000400400040014082B00A4BFF
:10183000996901221143996199690A400092009ABD
:10184000DA69802149050A43DA61DB690B400193BB
:10185000019B02B07047C0460010024010B582B034
:10186000040003688022D205934204D01A4A9342AE
:1018700027D002B010BD194AD16901231943D161A3
:10188000D26913400093009B1548164B0360102348
:101890004360002383608022C2608132FF32026194
:1018A00080221201426120228261C361FFF788F920
:1018B000002803D10A4B63625C62DAE7FEF714FF8B
:1018C000F8E7064AD16902231943D161D26913406E
:1018D0000193019BCDE7C046000400400010024088
:1018E000380600205800024010B586B004001422CB
:1018F000002101A800F04FF822680C4B9A4201D059
:1019000006B010BD0A4B5A698021C9020A435A61C8
:101910005B690B400093009B01230193022202921A
:10192000059301A90348FFF729FAE9E700040040FD
:101930000010024000040048014B18607047C04688
:10194000080600200D488546FFF702F80C480D49AF
:101950000D4A002302E0D458C4500433C4188C420A
:10196000F9D30A4A0A4C002301E013600432A24270
:10197000FBD300F019F8FEF7A7FFFEE700200020D8
:101980000000002014060020281A00081406002079
:1019900010070020FEE703008218934200D1704731
:1019A00019700133F9E7000070B500260C4C0D4D9D
:1019B000641BA410A64209D1002600F019F80A4CB5
:1019C0000A4D641BA410A64205D170BDB300EB58AC
:1019D00098470136EEE7B300EB5898470136F2E737
:1019E000201A0008201A0008241A0008201A0008EB
:1019F000F8B5C046F8BC08BC9E467047F8B5C0466E
:081A0000F8BC08BC9E467047CB
:101A080053617700547269616E676C65000000006D
:081A180053696E650000000037
:041A2000E9000008D1
:041A2400C1000008F5
:101A28003C0400403E0000000000000010000000E0
:101A380020000000300000004000000051000000BD
:101A480061000000710000008100000091000000AA
:101A5800A1000000B1000000C1000000D10000009A
:101A6800E2000000F2000000020100001201000084
:101A78002201000032010000420100005201000072
:101A8800620100007301000083010000930100005F
:101A9800A3010000B3010000C3010000D30100004E
:101AA800E3010000F301000004020000140200003A
:101AB8002402000034020000440200005402000026
:101AC8006402000074020000840200009502000015
:101AD800A5020000B5020000C5020000D502000002
:101AE800E5020000F50200000503000015030000F0
:101AF80026030000360300004603000056030000DA
:101B080066030000760300008603000096030000C9
:101B1800A6030000B7030000C7030000D7030000B6
:101B2800E7030000F7030000F7030000E7030000E5
:101B3800D7030000C7030000B7030000A603000096
:101B48009603000086030000760300006603000089
:101B58005603000046030000360300002603000079
:101B68001503000005030000F5020000E50200006F
:101B7800D5020000C5020000B5020000A502000061
:101B88009502000084020000740200006402000054
:101B98005402000044020000340200002402000045
:101BA8001402000004020000F3010000E301000039
:101BB800D3010000C3010000B3010000A30100002D
:101BC800930100008301000073010000620100001E
:101BD8005201000042010000320100002201000011
:101BE8001201000002010000F2000000E200000003
:101BF800D1000000C1000000B1000000A1000000F9
:101C080091000000810000007100000061000000E8
:101C180051000000400000003000000020000000DB
:101C28001000000000000000000000000800000094
:101C3800100000001800000020000000280000002C
:101C4800300000003800000040000000480000009C
:101C58005100000059000000610000006900000008
:101C68007100000079000000810000008900000078
:101C78009100000099000000A1000000A9000000E8
:101C8800B1000000B9000000C1000000C900000058
:101C9800D1000000D9000000E2000000EA000000C6
:101CA800F2000000FA000000020100000A01000032
:101CB800120100001A010000220100002A010000A0
:101CC800320100003A010000420100004A01000010
:101CD800520100005A010000620100006A01000080
:101CE800730100007B010000830100008B010000EC
:101CF800930100009B010000A3010000AB0100005C
:101D0800B3010000BB010000C3010000CB010000CB
:101D1800D3010000DB010000E3010000EB0100003B
:101D2800F3010000FB010000040200000C020000A7
:101D3800140200001C020000240200002C02000013
:101D4800340200003C020000440200004C02000083
:101D5800540200005C020000640200006C020000F3
:101D6800740200007C020000840200008C02000063
:101D7800950200009D020000A5020000AD020000CF
:101D8800B5020000BD020000C5020000CD0200003F
:101D9800D5020000DD020000E5020000ED020000AF
:101DA800F5020000FD020000050300000D0300001D
:101DB800150300001D030000260300002E03000089
:101DC800360300003E030000460300004E030000F7
:101DD800560300005E030000660300006E03000067
:101DE800760300007E030000860300008E030000D7
:101DF800960300009E030000A6030000AE03000047
:101E0800B7030000BF030000C7030000CF030000B2
:101E1800D7030000DF030000E7030000EF03000022
:101E2800F7030000FF030000000200001902000091
:101E3800320200004B020000630200007C02000036
:101E480094020000AC020000C3020000DA020000A5
:101E5800F1020000060300001C030000300300002C
:101E68004403000057030000690300007A030000E0
:101E78008B0300009A030000A9030000B6030000CA
:101E8800C3030000CE030000D8030000E1030000F4
:101E9800E9030000F0030000F5030000F903000067
:101EA800FD030000FE030000FF030000FE03000026
:101EB800FD030000F9030000F5030000F003000033
:101EC800E9030000E1030000D8030000CE0300008E
:101ED800C3030000B6030000A90300009A03000032
:101EE8008B0300007A030000690300005703000019
:101EF80044030000300300001C0300000603000038
:101F0800F1020000DA020000C3020000AC02000087
:101F1800940200007C020000630200004B020000F3
:101F2800320200001902000000020000E601000071
:101F3800CD010000B40100009C01000083010000F5
:101F48006B010000530100003C0100002501000066
:101F58000E010000F9000000E3000000CF000000BF
:101F6800BB000000A80000009600000085000000EB
:101F780074000000650000005600000049000000E1
:101F88003C00000031000000270000001E00000097
:101F9800160000000F0000000A0000000600000004
:101FA8000200000001000000000000000100000025
:101FB80002000000060000000A0000000F000000F8
:101FC800160000001E00000027000000310000007D
:101FD8003C000000490000005600000065000000B9
:101FE800740000008500000096000000A8000000B2
:101FF800BB000000CF000000E3000000F900000073
:102008000E010000250100003C0100005301000002
:102018006B010000830100009C010000B401000076
:10202800CD010000E601000000127A000100000066
:0420380004000000A0
:040000050800194591
:00000001FF
