:020000040800F2
:1000000000200020010B00081D0700081F07000842
:1000100000000000000000000000000000000000E0
:1000200000000000000000000000000021070008A0
:10003000000000000000000023070008250700085A
:10004000510B0008510B0008510B0008510B000820
:10005000510B0008510B0008510B0008510B000810
:10006000510B0008510B0008510B0008510B000800
:10007000510B0008510B0008510B0008510B0008F0
:10008000510B0008510B000800000000510B000844
:10009000510B0008E9050008510B0008510B00083E
:1000A000510B0008510B0008510B0008510B0008C0
:1000B000510B000800000000510B00080000000078
:1000C00010B5064C2378002B07D1054B002B02D02E
:1000D000044800E000BF0123237010BD540000203D
:1000E00000000000AC0B0008044B10B5002B03D03F
:1000F0000349044800E000BF10BDC04600000000F6
:1001000058000020AC0B0008002243088B4274D337
:1001100003098B425FD3030A8B4244D3030B8B4208
:1001200028D3030C8B420DD3FF22090212BA030C11
:100130008B4202D31212090265D0030B8B4219D3F2
:1001400000E0090AC30B8B4201D3CB03C01A524112
:10015000830B8B4201D38B03C01A5241430B8B425A
:1001600001D34B03C01A5241030B8B4201D30B0343
:10017000C01A5241C30A8B4201D3CB02C01A52416A
:10018000830A8B4201D38B02C01A5241430A8B422D
:1001900001D34B02C01A5241030A8B4201D30B0216
:1001A000C01A5241CDD2C3098B4201D3CB01C01A30
:1001B000524183098B4201D38B01C01A524143093A
:1001C0008B4201D34B01C01A524103098B4201D328
:1001D0000B01C01A5241C3088B4201D3CB00C01A95
:1001E000524183088B4201D38B00C01A524143080D
:1001F0008B4201D34B00C01A5241411A00D2014632
:10020000524110467047FFE701B5002000F0F0F8BA
:1002100002BDC0460029F7D076E7704703460B437E
:100220007FD4002243088B4274D303098B425FD3EF
:10023000030A8B4244D3030B8B4228D3030C8B421B
:100240000DD3FF22090212BA030C8B4202D3121201
:10025000090265D0030B8B4219D300E0090AC30BD6
:100260008B4201D3CB03C01A5241830B8B4201D383
:100270008B03C01A5241430B8B4201D34B03C01A6C
:100280005241030B8B4201D30B03C01A5241C30AE4
:100290008B4201D3CB02C01A5241830A8B4201D355
:1002A0008B02C01A5241430A8B4201D34B02C01A3F
:1002B0005241030A8B4201D30B02C01A5241CDD2E4
:1002C000C3098B4201D3CB01C01A524183098B422F
:1002D00001D38B01C01A524143098B4201D34B0118
:1002E000C01A524103098B4201D30B01C01A52417B
:1002F000C3088B4201D3CB00C01A524183088B4202
:1003000001D38B00C01A524143088B4201D34B00EA
:10031000C01A5241411A00D201465241104670475C
:100320005DE0CA0F00D04942031000D34042534061
:1003300000229C4603098B422DD3030A8B4212D321
:10034000FC22890112BA030A8B420CD38901921153
:100350008B4208D3890192118B4204D389013AD090
:10036000921100E08909C3098B4201D3CB01C01A65
:10037000524183098B4201D38B01C01A5241430978
:100380008B4201D34B01C01A524103098B4201D366
:100390000B01C01A5241C3088B4201D3CB00C01AD3
:1003A000524183088B4201D38B00C01A5241D9D2EB
:1003B00043088B4201D34B00C01A5241411A00D26C
:1003C0000146634652415B10104601D34042002B68
:1003D00000D54942704763465B1000D3404201B5E7
:1003E000002000F005F802BD0029F8D016E770479C
:1003F0007047C046F0B5DE4657464E464546E0B526
:100400008BB01822002104A800F0A3FB5D4B5A69B1
:100410008021C9030A435A615A690A400392039A28
:100420005A69802189020A435A615A690A40029234
:10043000029A5A698021C9020A435A615B690B40DA
:100440000193019B504D0126AE6202239A46AB6296
:1004500002339946AB6204339846AB6208339B463D
:10046000AB621033AB624022AA628021A96204967B
:1004700008969027FF0504A80100380000F057F9FE
:100480005046049000240594089604A80100380002
:1004900000F04DF9484604900594089604A8010020
:1004A000380000F044F9404604900594089604A8EA
:1004B0000100380000F03BF9049605960694079475
:1004C000089404A80100280000F031F95046049077
:1004D000059606940794089404A80100280000F0EB
:1004E00026F948460490059606940794089404A8B3
:1004F0000100280000F01BF9404604900596069480
:100500000794089404A80100280000F010F9584648
:100510000490059606940794089404A80100280006
:1005200000F005F920230493059606940794089497
:1005300004AB1900280000F0FAF840220492059656
:1005400006940794089404AB1900280000F0EFF813
:1005500080210491059606940794089404A9280024
:1005600000F0E5F880239B0004930594089404A907
:10057000280000F0DCF80BB0F0BCBB46B246A94640
:10058000A046F0BD001002400004004870B5040011
:100590000278144D0121280000F0BEF96278022192
:1005A000280000F0B9F9A2780421280000F0B4F97D
:1005B000E2780821280000F0AFF922791021280004
:1005C00000F0AAF962792021280000F0A5F9A279AB
:1005D0004021280000F0A0F9E2798021280000F0F5
:1005E0009BF970BD0004004810B50A4B1B6802223D
:1005F00052421A61084C207801300921FFF7F4FEBD
:100600002170FF200840C000044BC018FFF7BEFF58
:1006100010BDC046740000207000002000000020C3
:1006200072B6FEE710B50C480C4B03600C4B4360F0
:10063000002383600B4AC26003614361803383619E
:1006400000F0FEF9002804D1074B802292031A60C3
:1006500010BDFFF7E5FFC0467400002000440140D4
:100660003F1F0000E703000000E100E010B51A4A58
:10067000136801218B431360174B1B68DB07FBD406
:10068000164A136801210B431360144B1B689B0728
:10069000FBD5124B1A68F8218A4378390A431A604D
:1006A0005A6870318A435A605A680D490A405A6044
:1006B0005A6803218A435A60084B5B680C221A422D
:1006C000FAD1084800F016FA032000F08DF800284F
:1006D00000D110BDFFF7A4FF00200240001002402F
:1006E000FFF8FFFF00127A0010B500F0A5F8FFF741
:1006F000BDFFFFF77FFEFFF795FF054B1878C000A1
:10070000044BC018FFF742FF034800F00BF9FEE767
:10071000700000200000002074000020FEE7FEE7CB
:100720007047704710B500F097F810BD7047F0B5EE
:10073000002216E00B699C46C4682B006B435E00E8
:10074000F618F743B44366465E433443C4604C68CE
:10075000022C26D04D6804683C406B432343036061
:1007600001320C682300D3403BD001239340250085
:100770001D401C42F4D04B68013B012BDAD88F6836
:1007800083682C006C4366003619B3437C432343D3
:1007900083600E68CC684368B3437443234343606B
:1007A000C8E7FF2D0DD84C69A446066A1C006C43AF
:1007B0006C4325012D1BAE4365466C4334430462F4
:1007C000C8E74C69A446466A2D0A2C006C436C436A
:1007D0006C4325012D1BAE4365466C433443446294
:1007E000B8E70020F0BD000010B504000F4B1978E9
:1007F000FA208000FFF788FC01000D4B1868FFF716
:1008000083FC00F085F800280DD1032C01D90120CC
:100810000AE0013000222100404200F075F8054B4B
:100820001C60002000E0012010BDC0464C000020EC
:10083000480000205000002010B5064A136810211F
:100840000B4313600320FFF7CFFF00F025F90020D2
:1008500010BDC04600200240034A1168034B1B78BC
:100860005B1813607047C046BC0000204C0000209D
:1008700070B5002811DB8308134DC0339B005C5911
:1008800003221040C000FC3216008640B4438901A8
:100890000A40824022435A5170BD0F230340083B57
:1008A0009B0806339B00094A944663445C68032214
:1008B0001040C000FC3215008540AC4389010A405D
:1008C000824022435A60E7E700E100E000ED00E0EB
:1008D000013880235B0498420FD2094A50600948CE
:1008E000036A1B021B0AC02109060B430362002393
:1008F000936007331360002070470120FCE7C04677
:1009000010E000E000ED00E010B5FFF7B1FF10BD12
:1009100010B5FFF7DDFF10BD002A01D081617047DF
:100920008162FCE73D23C35C012B26D13C330222CC
:10093000C2540268D36801210B43D3600368114A93
:1009400093420FD08022D20593420BD00E4A93429D
:1009500008D00E4A934205D01A6801210A431A6052
:1009600000200BE0996807220A40062A07D01A687F
:1009700001210A431A60002000E001207047002096
:10098000FCE7C046002C014000040040004001404C
:100990000368244A904206D08022D205904202D0B9
:1009A000214A904203D1702293434A6813431D4A5F
:1009B000904212D08022D20590420ED01A4A904224
:1009C0000BD01A4A904208D0194A904205D0194AD1
:1009D000904202D0184A904203D1184A1A40CB687C
:1009E0001343802293434A69134303608B68C362B5
:1009F0000B6883620B4B984208D00D4B984205D090
:100A00000C4B984202D00C4B984201D10B69036306
:100A1000012343610269134203D003690122934316
:100A200003617047002C014000040040002000409A
:100A3000004001400044014000480140FFFCFFFF2E
:100A400070B5041E26D03D23C35C002B1CD03D2571
:100A500002236355210001C9FFF79AFF01234622B3
:100A6000A354083AA3540132A3540132A3540132CF
:100A7000A3540132A3540132A3540132A3540132CE
:100A8000A3546355002070BD3C330022C25400F0D3
:100A90001BF8DCE70120F6E782B00A4B99690122D6
:100AA0001143996199690A400092009ADA6980219C
:100AB00049050A43DA61DB690B400193019B02B0EF
:100AC0007047C0460010024082B00268074B9A424D
:100AD00001D002B07047064B9A69802189020A430F
:100AE0009A619B690B400193019BF2E7004401402E
:100AF00000100240014B18607047C04648000020BB
:100B00000D488546FFF712FE0C480D490D4A00239B
:100B100002E0D458C4500433C4188C42F9D30A4AB2
:100B20000A4C002301E013600432A242FBD300F020
:100B300019F8FFF7D9FDFEE7002000200000002093
:100B400054000020CC0B000854000020C0000020FE
:100B5000FEE703008218934200D1704719700133F9
:100B6000F9E7000070B500260C4C0D4D641BA41075
:100B7000A64209D1002600F019F80A4C0A4D641B60
:100B8000A410A64205D170BDB300EB5898470136BA
:100B9000EEE7B300EB5898470136F2E7C40B0008C4
:100BA000C40B0008C80B0008C40B0008F8B5C04609
:100BB000F8BC08BC9E467047F8B5C046F8BC08BCF7
:040BC0009E46704796
:040BC400E90000083C
:040BC800C100000860
:100BCC000000000000000000010101000100000114
:100BDC000101000100000100010001000001000002
:100BEC0000010000010000000100000100000000F5
:100BFC0000000100000000000001000000000000E7
:100C0C00010000000000000000127A00010000004A
:040C1C0004000000D0
:0400000508000B01E3
:00000001FF
