:020000040800F2
:1000000000200020C10100089701000899010008A4
:1000100000000000000000000000000000000000E0
:100020000000000000000000000000009B0100082C
:1000300000000000000000009D0100089F01000872
:100040001102000811020008110200081102000844
:100050001102000811020008110200081102000834
:100060001102000811020008110200081102000824
:100070001102000811020008110200081102000814
:10008000110200081102000800000000110200081F
:1000900011020008110200081102000811020008F4
:1000A00011020008110200081102000811020008E4
:1000B000110200080000000011020008000000000A
:1000C00010B5064C2378002B07D1054B002B02D02E
:1000D000044800E000BF0123237010BD040000208D
:1000E000000000005C020008044B10B5002B03D098
:1000F0000349044800E000BF10BDC04600000000F6
:10010000080000205C020008002000201101000807
:1001100017484169174A1143416117485521C16089
:100120001649174A0A60002200240125154E12487C
:100130000369DB430F273B4004271F4001D0AA225D
:1001400010E008271F400DD101271F4001D00225D4
:1001500000E0012502271F4001D00B4E00E0094EB0
:10016000641922004A613700013FFDD1DFE7C04634
:100170000010024000000600000000480004004893
:100180005555000060AE0A00E093040010B5FFF77B
:10019000BFFF002010BDFEE7FEE77047704710B5B7
:1001A00000F002F810BD7047034A1168034B1B783A
:1001B0005B1813607047C04620000020000000203C
:1001C0000D488546FFF7EFFF0C480D490D4A002307
:1001D00002E0D458C4500433C4188C42F9D30A4AFC
:1001E0000A4C002301E013600432A242FBD300F06A
:1001F00011F8FFF7CBFFFEE70020002000000020F1
:10020000040000207C0200080400002024000020DC
:10021000FEE7000070B500260C4C0D4D641BA410C9
:10022000A64209D1002600F019F80A4C0A4D641BB9
:10023000A410A64205D170BDB300EB589847013613
:10024000EEE7B300EB5898470136F2E77402000876
:10025000740200087802000874020008F8B5C0466D
:10026000F8BC08BC9E467047F8B5C046F8BC08BC50
:040270009E467047EF
:04027400E900000895
:04027800C1000008B9
:04027C00010000007D
:04000005080001C12D
:00000001FF
